{
  "_format": "hh-sol-artifact-1",
  "contractName": "CarbonCreditNFTMarketplace",
  "sourceName": "contracts/CarbonCreditNFTMarketplace.sol",
  "abi": [
    {
      "inputs": [
        {
          "internalType": "address",
          "name": "_carbonCreditNFT",
          "type": "address"
        }
      ],
      "stateMutability": "nonpayable",
      "type": "constructor"
    },
    {
      "inputs": [
        {
          "internalType": "address",
          "name": "owner",
          "type": "address"
        }
      ],
      "name": "OwnableInvalidOwner",
      "type": "error"
    },
    {
      "inputs": [
        {
          "internalType": "address",
          "name": "account",
          "type": "address"
        }
      ],
      "name": "OwnableUnauthorizedAccount",
      "type": "error"
    },
    {
      "anonymous": false,
      "inputs": [
        {
          "indexed": false,
          "internalType": "uint256",
          "name": "tokenId",
          "type": "uint256"
        },
        {
          "indexed": false,
          "internalType": "address",
          "name": "seller",
          "type": "address"
        },
        {
          "indexed": false,
          "internalType": "uint256",
          "name": "price",
          "type": "uint256"
        }
      ],
      "name": "NFTListed",
      "type": "event"
    },
    {
      "anonymous": false,
      "inputs": [
        {
          "indexed": false,
          "internalType": "uint256",
          "name": "tokenId",
          "type": "uint256"
        },
        {
          "indexed": false,
          "internalType": "address",
          "name": "buyer",
          "type": "address"
        },
        {
          "indexed": false,
          "internalType": "uint256",
          "name": "price",
          "type": "uint256"
        }
      ],
      "name": "NFTSold",
      "type": "event"
    },
    {
      "anonymous": false,
      "inputs": [
        {
          "indexed": true,
          "internalType": "address",
          "name": "previousOwner",
          "type": "address"
        },
        {
          "indexed": true,
          "internalType": "address",
          "name": "newOwner",
          "type": "address"
        }
      ],
      "name": "OwnershipTransferred",
      "type": "event"
    },
    {
      "inputs": [
        {
          "internalType": "uint256",
          "name": "tokenId",
          "type": "uint256"
        }
      ],
      "name": "cancelListing",
      "outputs": [],
      "stateMutability": "nonpayable",
      "type": "function"
    },
    {
      "inputs": [],
      "name": "carbonCreditNFT",
      "outputs": [
        {
          "internalType": "contract IERC721",
          "name": "",
          "type": "address"
        }
      ],
      "stateMutability": "view",
      "type": "function"
    },
    {
      "inputs": [
        {
          "internalType": "uint256",
          "name": "tokenId",
          "type": "uint256"
        },
        {
          "internalType": "uint256",
          "name": "price",
          "type": "uint256"
        }
      ],
      "name": "listNFT",
      "outputs": [],
      "stateMutability": "nonpayable",
      "type": "function"
    },
    {
      "inputs": [
        {
          "internalType": "uint256",
          "name": "",
          "type": "uint256"
        }
      ],
      "name": "listings",
      "outputs": [
        {
          "internalType": "uint256",
          "name": "tokenId",
          "type": "uint256"
        },
        {
          "internalType": "address",
          "name": "seller",
          "type": "address"
        },
        {
          "internalType": "uint256",
          "name": "price",
          "type": "uint256"
        },
        {
          "internalType": "bool",
          "name": "isSold",
          "type": "bool"
        }
      ],
      "stateMutability": "view",
      "type": "function"
    },
    {
      "inputs": [],
      "name": "owner",
      "outputs": [
        {
          "internalType": "address",
          "name": "",
          "type": "address"
        }
      ],
      "stateMutability": "view",
      "type": "function"
    },
    {
      "inputs": [
        {
          "internalType": "uint256",
          "name": "tokenId",
          "type": "uint256"
        }
      ],
      "name": "purchaseNFT",
      "outputs": [],
      "stateMutability": "payable",
      "type": "function"
    },
    {
      "inputs": [],
      "name": "renounceOwnership",
      "outputs": [],
      "stateMutability": "nonpayable",
      "type": "function"
    },
    {
      "inputs": [
        {
          "internalType": "uint256",
          "name": "tokenId",
          "type": "uint256"
        },
        {
          "internalType": "uint256",
          "name": "newPrice",
          "type": "uint256"
        }
      ],
      "name": "setPrice",
      "outputs": [],
      "stateMutability": "nonpayable",
      "type": "function"
    },
    {
      "inputs": [
        {
          "internalType": "address",
          "name": "newOwner",
          "type": "address"
        }
      ],
      "name": "transferOwnership",
      "outputs": [],
      "stateMutability": "nonpayable",
      "type": "function"
    },
    {
      "inputs": [],
      "name": "withdrawFunds",
      "outputs": [],
      "stateMutability": "nonpayable",
      "type": "function"
    }
  ],
  "bytecode": "0x60806040523480156200001157600080fd5b506040516200150238038062001502833981810160405281019062000037919062000235565b33600073ffffffffffffffffffffffffffffffffffffffff168173ffffffffffffffffffffffffffffffffffffffff1603620000ad5760006040517f1e4fbdf7000000000000000000000000000000000000000000000000000000008152600401620000a4919062000278565b60405180910390fd5b620000be816200010760201b60201c565b5080600160006101000a81548173ffffffffffffffffffffffffffffffffffffffff021916908373ffffffffffffffffffffffffffffffffffffffff1602179055505062000295565b60008060009054906101000a900473ffffffffffffffffffffffffffffffffffffffff169050816000806101000a81548173ffffffffffffffffffffffffffffffffffffffff021916908373ffffffffffffffffffffffffffffffffffffffff1602179055508173ffffffffffffffffffffffffffffffffffffffff168173ffffffffffffffffffffffffffffffffffffffff167f8be0079c531659141344cd1fd0a4f28419497f9722a3daafe3b4186f6b6457e060405160405180910390a35050565b600080fd5b600073ffffffffffffffffffffffffffffffffffffffff82169050919050565b6000620001fd82620001d0565b9050919050565b6200020f81620001f0565b81146200021b57600080fd5b50565b6000815190506200022f8162000204565b92915050565b6000602082840312156200024e576200024d620001cb565b5b60006200025e848285016200021e565b91505092915050565b6200027281620001f0565b82525050565b60006020820190506200028f600083018462000267565b92915050565b61125d80620002a56000396000f3fe6080604052600436106100905760003560e01c80638da5cb5b116100595780638da5cb5b1461013357806394383f141461015e578063de74e57b14610187578063f2fde38b146101c7578063f7d97577146101f057610090565b80623f2d0214610095578063150bde03146100c057806324600fc3146100dc578063305a67a8146100f3578063715018a61461011c575b600080fd5b3480156100a157600080fd5b506100aa610219565b6040516100b79190610cd6565b60405180910390f35b6100da60048036038101906100d59190610d2c565b61023f565b005b3480156100e857600080fd5b506100f161044f565b005b3480156100ff57600080fd5b5061011a60048036038101906101159190610d2c565b6104a7565b005b34801561012857600080fd5b50610131610646565b005b34801561013f57600080fd5b5061014861065a565b6040516101559190610d7a565b60405180910390f35b34801561016a57600080fd5b5061018560048036038101906101809190610d95565b610683565b005b34801561019357600080fd5b506101ae60048036038101906101a99190610d2c565b61096a565b6040516101be9493929190610dff565b60405180910390f35b3480156101d357600080fd5b506101ee60048036038101906101e99190610e70565b6109c7565b005b3480156101fc57600080fd5b5061021760048036038101906102129190610d95565b610a4d565b005b600160009054906101000a900473ffffffffffffffffffffffffffffffffffffffff1681565b60006002600083815260200190815260200160002090508060030160009054906101000a900460ff16156102a8576040517f08c379a000000000000000000000000000000000000000000000000000000000815260040161029f90610efa565b60405180910390fd5b80600201543410156102ef576040517f08c379a00000000000000000000000000000000000000000000000000000000081526004016102e690610f66565b60405180910390fd5b60018160030160006101000a81548160ff0219169083151502179055508060010160009054906101000a900473ffffffffffffffffffffffffffffffffffffffff1673ffffffffffffffffffffffffffffffffffffffff166108fc82600201549081150290604051600060405180830381858888f1935050505015801561037a573d6000803e3d6000fd5b50600160009054906101000a900473ffffffffffffffffffffffffffffffffffffffff1673ffffffffffffffffffffffffffffffffffffffff166342842e0e3033856040518463ffffffff1660e01b81526004016103da93929190610f86565b600060405180830381600087803b1580156103f457600080fd5b505af1158015610408573d6000803e3d6000fd5b505050507f6329e40c0365262ebbff5ca819385c2b9713dcaa050ed07866d72c441395699a8233836002015460405161044393929190610fbd565b60405180910390a15050565b610457610b04565b61045f61065a565b73ffffffffffffffffffffffffffffffffffffffff166108fc479081150290604051600060405180830381858888f193505050501580156104a4573d6000803e3d6000fd5b50565b60006002600083815260200190815260200160002090508060010160009054906101000a900473ffffffffffffffffffffffffffffffffffffffff1673ffffffffffffffffffffffffffffffffffffffff163373ffffffffffffffffffffffffffffffffffffffff1614610550576040517f08c379a000000000000000000000000000000000000000000000000000000000815260040161054790611040565b60405180910390fd5b600160009054906101000a900473ffffffffffffffffffffffffffffffffffffffff1673ffffffffffffffffffffffffffffffffffffffff166342842e0e3033856040518463ffffffff1660e01b81526004016105af93929190610f86565b600060405180830381600087803b1580156105c957600080fd5b505af11580156105dd573d6000803e3d6000fd5b50505050600260008381526020019081526020016000206000808201600090556001820160006101000a81549073ffffffffffffffffffffffffffffffffffffffff021916905560028201600090556003820160006101000a81549060ff021916905550505050565b61064e610b04565b6106586000610b8b565b565b60008060009054906101000a900473ffffffffffffffffffffffffffffffffffffffff16905090565b600081116106c6576040517f08c379a00000000000000000000000000000000000000000000000000000000081526004016106bd906110ac565b60405180910390fd5b3373ffffffffffffffffffffffffffffffffffffffff16600160009054906101000a900473ffffffffffffffffffffffffffffffffffffffff1673ffffffffffffffffffffffffffffffffffffffff16636352211e846040518263ffffffff1660e01b815260040161073891906110cc565b602060405180830381865afa158015610755573d6000803e3d6000fd5b505050506040513d601f19601f8201168201806040525081019061077991906110fc565b73ffffffffffffffffffffffffffffffffffffffff16146107cf576040517f08c379a00000000000000000000000000000000000000000000000000000000081526004016107c690611175565b60405180910390fd5b600160009054906101000a900473ffffffffffffffffffffffffffffffffffffffff1673ffffffffffffffffffffffffffffffffffffffff166323b872dd3330856040518463ffffffff1660e01b815260040161082e93929190610f86565b600060405180830381600087803b15801561084857600080fd5b505af115801561085c573d6000803e3d6000fd5b5050505060405180608001604052808381526020013373ffffffffffffffffffffffffffffffffffffffff16815260200182815260200160001515815250600260008481526020019081526020016000206000820151816000015560208201518160010160006101000a81548173ffffffffffffffffffffffffffffffffffffffff021916908373ffffffffffffffffffffffffffffffffffffffff1602179055506040820151816002015560608201518160030160006101000a81548160ff0219169083151502179055509050507f5f9c03de076f5063cd3ebcfe8ef7aa8af378e4b35a83c77ba9777e97083879a282338360405161095e93929190610fbd565b60405180910390a15050565b60026020528060005260406000206000915090508060000154908060010160009054906101000a900473ffffffffffffffffffffffffffffffffffffffff16908060020154908060030160009054906101000a900460ff16905084565b6109cf610b04565b600073ffffffffffffffffffffffffffffffffffffffff168173ffffffffffffffffffffffffffffffffffffffff1603610a415760006040517f1e4fbdf7000000000000000000000000000000000000000000000000000000008152600401610a389190610d7a565b60405180910390fd5b610a4a81610b8b565b50565b60006002600084815260200190815260200160002090508060010160009054906101000a900473ffffffffffffffffffffffffffffffffffffffff1673ffffffffffffffffffffffffffffffffffffffff163373ffffffffffffffffffffffffffffffffffffffff1614610af6576040517f08c379a0000000000000000000000000000000000000000000000000000000008152600401610aed90611207565b60405180910390fd5b818160020181905550505050565b610b0c610c4f565b73ffffffffffffffffffffffffffffffffffffffff16610b2a61065a565b73ffffffffffffffffffffffffffffffffffffffff1614610b8957610b4d610c4f565b6040517f118cdaa7000000000000000000000000000000000000000000000000000000008152600401610b809190610d7a565b60405180910390fd5b565b60008060009054906101000a900473ffffffffffffffffffffffffffffffffffffffff169050816000806101000a81548173ffffffffffffffffffffffffffffffffffffffff021916908373ffffffffffffffffffffffffffffffffffffffff1602179055508173ffffffffffffffffffffffffffffffffffffffff168173ffffffffffffffffffffffffffffffffffffffff167f8be0079c531659141344cd1fd0a4f28419497f9722a3daafe3b4186f6b6457e060405160405180910390a35050565b600033905090565b600073ffffffffffffffffffffffffffffffffffffffff82169050919050565b6000819050919050565b6000610c9c610c97610c9284610c57565b610c77565b610c57565b9050919050565b6000610cae82610c81565b9050919050565b6000610cc082610ca3565b9050919050565b610cd081610cb5565b82525050565b6000602082019050610ceb6000830184610cc7565b92915050565b600080fd5b6000819050919050565b610d0981610cf6565b8114610d1457600080fd5b50565b600081359050610d2681610d00565b92915050565b600060208284031215610d4257610d41610cf1565b5b6000610d5084828501610d17565b91505092915050565b6000610d6482610c57565b9050919050565b610d7481610d59565b82525050565b6000602082019050610d8f6000830184610d6b565b92915050565b60008060408385031215610dac57610dab610cf1565b5b6000610dba85828601610d17565b9250506020610dcb85828601610d17565b9150509250929050565b610dde81610cf6565b82525050565b60008115159050919050565b610df981610de4565b82525050565b6000608082019050610e146000830187610dd5565b610e216020830186610d6b565b610e2e6040830185610dd5565b610e3b6060830184610df0565b95945050505050565b610e4d81610d59565b8114610e5857600080fd5b50565b600081359050610e6a81610e44565b92915050565b600060208284031215610e8657610e85610cf1565b5b6000610e9484828501610e5b565b91505092915050565b600082825260208201905092915050565b7f4e465420697320616c726561647920736f6c6400000000000000000000000000600082015250565b6000610ee4601383610e9d565b9150610eef82610eae565b602082019050919050565b60006020820190508181036000830152610f1381610ed7565b9050919050565b7f496e73756666696369656e742066756e64730000000000000000000000000000600082015250565b6000610f50601283610e9d565b9150610f5b82610f1a565b602082019050919050565b60006020820190508181036000830152610f7f81610f43565b9050919050565b6000606082019050610f9b6000830186610d6b565b610fa86020830185610d6b565b610fb56040830184610dd5565b949350505050565b6000606082019050610fd26000830186610dd5565b610fdf6020830185610d6b565b610fec6040830184610dd5565b949350505050565b7f4f6e6c79207468652073656c6c65722063616e2063616e63656c000000000000600082015250565b600061102a601a83610e9d565b915061103582610ff4565b602082019050919050565b600060208201905081810360008301526110598161101d565b9050919050565b7f5072696365206d7573742062652067726561746572207468616e207a65726f00600082015250565b6000611096601f83610e9d565b91506110a182611060565b602082019050919050565b600060208201905081810360008301526110c581611089565b9050919050565b60006020820190506110e16000830184610dd5565b92915050565b6000815190506110f681610e44565b92915050565b60006020828403121561111257611111610cf1565b5b6000611120848285016110e7565b91505092915050565b7f596f7520617265206e6f7420746865206f776e65720000000000000000000000600082015250565b600061115f601583610e9d565b915061116a82611129565b602082019050919050565b6000602082019050818103600083015261118e81611152565b9050919050565b7f4f6e6c79207468652073656c6c65722063616e2073657420746865207072696360008201527f6500000000000000000000000000000000000000000000000000000000000000602082015250565b60006111f1602183610e9d565b91506111fc82611195565b604082019050919050565b60006020820190508181036000830152611220816111e4565b905091905056fea264697066735822122052043bab1fef1fe28e163212e8530fe77b03a87ef7828034052f99b90fe57e0b64736f6c63430008180033",
  "linkReferences": {},
  "deployedLinkReferences": {}
}