{
  "_format": "hh-sol-artifact-1",
  "contractName": "CarbonCreditNFT",
  "sourceName": "contracts/CarbonCreditNFT.sol",
  "abi": [
    {
      "inputs": [
        {
          "internalType": "address",
          "name": "_averageEmissionsOracle",
          "type": "address"
        },
        {
          "internalType": "address",
          "name": "_projectEmissionsOracle",
          "type": "address"
        },
        {
          "internalType": "address",
          "name": "_projectApproval",
          "type": "address"
        }
      ],
      "stateMutability": "nonpayable",
      "type": "constructor"
    },
    {
      "inputs": [
        {
          "internalType": "address",
          "name": "sender",
          "type": "address"
        },
        {
          "internalType": "uint256",
          "name": "tokenId",
          "type": "uint256"
        },
        {
          "internalType": "address",
          "name": "owner",
          "type": "address"
        }
      ],
      "name": "ERC721IncorrectOwner",
      "type": "error"
    },
    {
      "inputs": [
        {
          "internalType": "address",
          "name": "operator",
          "type": "address"
        },
        {
          "internalType": "uint256",
          "name": "tokenId",
          "type": "uint256"
        }
      ],
      "name": "ERC721InsufficientApproval",
      "type": "error"
    },
    {
      "inputs": [
        {
          "internalType": "address",
          "name": "approver",
          "type": "address"
        }
      ],
      "name": "ERC721InvalidApprover",
      "type": "error"
    },
    {
      "inputs": [
        {
          "internalType": "address",
          "name": "operator",
          "type": "address"
        }
      ],
      "name": "ERC721InvalidOperator",
      "type": "error"
    },
    {
      "inputs": [
        {
          "internalType": "address",
          "name": "owner",
          "type": "address"
        }
      ],
      "name": "ERC721InvalidOwner",
      "type": "error"
    },
    {
      "inputs": [
        {
          "internalType": "address",
          "name": "receiver",
          "type": "address"
        }
      ],
      "name": "ERC721InvalidReceiver",
      "type": "error"
    },
    {
      "inputs": [
        {
          "internalType": "address",
          "name": "sender",
          "type": "address"
        }
      ],
      "name": "ERC721InvalidSender",
      "type": "error"
    },
    {
      "inputs": [
        {
          "internalType": "uint256",
          "name": "tokenId",
          "type": "uint256"
        }
      ],
      "name": "ERC721NonexistentToken",
      "type": "error"
    },
    {
      "inputs": [],
      "name": "EnforcedPause",
      "type": "error"
    },
    {
      "inputs": [],
      "name": "ExpectedPause",
      "type": "error"
    },
    {
      "inputs": [
        {
          "internalType": "address",
          "name": "owner",
          "type": "address"
        }
      ],
      "name": "OwnableInvalidOwner",
      "type": "error"
    },
    {
      "inputs": [
        {
          "internalType": "address",
          "name": "account",
          "type": "address"
        }
      ],
      "name": "OwnableUnauthorizedAccount",
      "type": "error"
    },
    {
      "anonymous": false,
      "inputs": [
        {
          "indexed": true,
          "internalType": "address",
          "name": "owner",
          "type": "address"
        },
        {
          "indexed": true,
          "internalType": "address",
          "name": "approved",
          "type": "address"
        },
        {
          "indexed": true,
          "internalType": "uint256",
          "name": "tokenId",
          "type": "uint256"
        }
      ],
      "name": "Approval",
      "type": "event"
    },
    {
      "anonymous": false,
      "inputs": [
        {
          "indexed": true,
          "internalType": "address",
          "name": "owner",
          "type": "address"
        },
        {
          "indexed": true,
          "internalType": "address",
          "name": "operator",
          "type": "address"
        },
        {
          "indexed": false,
          "internalType": "bool",
          "name": "approved",
          "type": "bool"
        }
      ],
      "name": "ApprovalForAll",
      "type": "event"
    },
    {
      "anonymous": false,
      "inputs": [
        {
          "indexed": true,
          "internalType": "address",
          "name": "owner",
          "type": "address"
        },
        {
          "indexed": true,
          "internalType": "address",
          "name": "recipient",
          "type": "address"
        },
        {
          "indexed": false,
          "internalType": "uint256",
          "name": "numberOfTokens",
          "type": "uint256"
        },
        {
          "indexed": false,
          "internalType": "uint256",
          "name": "timestamp",
          "type": "uint256"
        }
      ],
      "name": "CarbonCreditsMinted",
      "type": "event"
    },
    {
      "anonymous": false,
      "inputs": [
        {
          "indexed": true,
          "internalType": "address",
          "name": "previousOwner",
          "type": "address"
        },
        {
          "indexed": true,
          "internalType": "address",
          "name": "newOwner",
          "type": "address"
        }
      ],
      "name": "OwnershipTransferred",
      "type": "event"
    },
    {
      "anonymous": false,
      "inputs": [
        {
          "indexed": false,
          "internalType": "address",
          "name": "account",
          "type": "address"
        }
      ],
      "name": "Paused",
      "type": "event"
    },
    {
      "anonymous": false,
      "inputs": [
        {
          "indexed": true,
          "internalType": "address",
          "name": "owner",
          "type": "address"
        },
        {
          "indexed": false,
          "internalType": "bytes32",
          "name": "dataHash",
          "type": "bytes32"
        }
      ],
      "name": "ProjectRegistered",
      "type": "event"
    },
    {
      "anonymous": false,
      "inputs": [
        {
          "indexed": true,
          "internalType": "address",
          "name": "from",
          "type": "address"
        },
        {
          "indexed": true,
          "internalType": "address",
          "name": "to",
          "type": "address"
        },
        {
          "indexed": true,
          "internalType": "uint256",
          "name": "tokenId",
          "type": "uint256"
        }
      ],
      "name": "Transfer",
      "type": "event"
    },
    {
      "anonymous": false,
      "inputs": [
        {
          "indexed": false,
          "internalType": "address",
          "name": "account",
          "type": "address"
        }
      ],
      "name": "Unpaused",
      "type": "event"
    },
    {
      "inputs": [
        {
          "internalType": "address",
          "name": "to",
          "type": "address"
        },
        {
          "internalType": "uint256",
          "name": "tokenId",
          "type": "uint256"
        }
      ],
      "name": "approve",
      "outputs": [],
      "stateMutability": "nonpayable",
      "type": "function"
    },
    {
      "inputs": [],
      "name": "averageEmissionsOracle",
      "outputs": [
        {
          "internalType": "contract IAverageEmissionsOracle",
          "name": "",
          "type": "address"
        }
      ],
      "stateMutability": "view",
      "type": "function"
    },
    {
      "inputs": [
        {
          "internalType": "address",
          "name": "owner",
          "type": "address"
        }
      ],
      "name": "balanceOf",
      "outputs": [
        {
          "internalType": "uint256",
          "name": "",
          "type": "uint256"
        }
      ],
      "stateMutability": "view",
      "type": "function"
    },
    {
      "inputs": [
        {
          "internalType": "uint256",
          "name": "tokenId",
          "type": "uint256"
        }
      ],
      "name": "getApproved",
      "outputs": [
        {
          "internalType": "address",
          "name": "",
          "type": "address"
        }
      ],
      "stateMutability": "view",
      "type": "function"
    },
    {
      "inputs": [
        {
          "internalType": "address",
          "name": "owner",
          "type": "address"
        },
        {
          "internalType": "address",
          "name": "operator",
          "type": "address"
        }
      ],
      "name": "isApprovedForAll",
      "outputs": [
        {
          "internalType": "bool",
          "name": "",
          "type": "bool"
        }
      ],
      "stateMutability": "view",
      "type": "function"
    },
    {
      "inputs": [
        {
          "internalType": "address",
          "name": "_owner",
          "type": "address"
        }
      ],
      "name": "isProjectRegistered",
      "outputs": [
        {
          "internalType": "bool",
          "name": "",
          "type": "bool"
        }
      ],
      "stateMutability": "view",
      "type": "function"
    },
    {
      "inputs": [
        {
          "internalType": "address",
          "name": "recipient",
          "type": "address"
        }
      ],
      "name": "mintCarbonCredit",
      "outputs": [],
      "stateMutability": "nonpayable",
      "type": "function"
    },
    {
      "inputs": [],
      "name": "name",
      "outputs": [
        {
          "internalType": "string",
          "name": "",
          "type": "string"
        }
      ],
      "stateMutability": "view",
      "type": "function"
    },
    {
      "inputs": [],
      "name": "owner",
      "outputs": [
        {
          "internalType": "address",
          "name": "",
          "type": "address"
        }
      ],
      "stateMutability": "view",
      "type": "function"
    },
    {
      "inputs": [
        {
          "internalType": "uint256",
          "name": "tokenId",
          "type": "uint256"
        }
      ],
      "name": "ownerOf",
      "outputs": [
        {
          "internalType": "address",
          "name": "",
          "type": "address"
        }
      ],
      "stateMutability": "view",
      "type": "function"
    },
    {
      "inputs": [],
      "name": "pause",
      "outputs": [],
      "stateMutability": "nonpayable",
      "type": "function"
    },
    {
      "inputs": [],
      "name": "paused",
      "outputs": [
        {
          "internalType": "bool",
          "name": "",
          "type": "bool"
        }
      ],
      "stateMutability": "view",
      "type": "function"
    },
    {
      "inputs": [],
      "name": "projectApproval",
      "outputs": [
        {
          "internalType": "contract ProjectApproval",
          "name": "",
          "type": "address"
        }
      ],
      "stateMutability": "view",
      "type": "function"
    },
    {
      "inputs": [],
      "name": "projectEmissionsOracle",
      "outputs": [
        {
          "internalType": "contract IProjectEmissionsOracle",
          "name": "",
          "type": "address"
        }
      ],
      "stateMutability": "view",
      "type": "function"
    },
    {
      "inputs": [
        {
          "internalType": "address",
          "name": "",
          "type": "address"
        }
      ],
      "name": "projects",
      "outputs": [
        {
          "internalType": "address",
          "name": "owner",
          "type": "address"
        },
        {
          "internalType": "bytes32",
          "name": "dataHash",
          "type": "bytes32"
        },
        {
          "internalType": "uint256",
          "name": "lastMintedTimestamp",
          "type": "uint256"
        }
      ],
      "stateMutability": "view",
      "type": "function"
    },
    {
      "inputs": [
        {
          "internalType": "bytes32",
          "name": "dataHash",
          "type": "bytes32"
        }
      ],
      "name": "registerProject",
      "outputs": [],
      "stateMutability": "nonpayable",
      "type": "function"
    },
    {
      "inputs": [],
      "name": "renounceOwnership",
      "outputs": [],
      "stateMutability": "nonpayable",
      "type": "function"
    },
    {
      "inputs": [
        {
          "internalType": "address",
          "name": "from",
          "type": "address"
        },
        {
          "internalType": "address",
          "name": "to",
          "type": "address"
        },
        {
          "internalType": "uint256",
          "name": "tokenId",
          "type": "uint256"
        }
      ],
      "name": "safeTransferFrom",
      "outputs": [],
      "stateMutability": "nonpayable",
      "type": "function"
    },
    {
      "inputs": [
        {
          "internalType": "address",
          "name": "from",
          "type": "address"
        },
        {
          "internalType": "address",
          "name": "to",
          "type": "address"
        },
        {
          "internalType": "uint256",
          "name": "tokenId",
          "type": "uint256"
        },
        {
          "internalType": "bytes",
          "name": "data",
          "type": "bytes"
        }
      ],
      "name": "safeTransferFrom",
      "outputs": [],
      "stateMutability": "nonpayable",
      "type": "function"
    },
    {
      "inputs": [
        {
          "internalType": "address",
          "name": "operator",
          "type": "address"
        },
        {
          "internalType": "bool",
          "name": "approved",
          "type": "bool"
        }
      ],
      "name": "setApprovalForAll",
      "outputs": [],
      "stateMutability": "nonpayable",
      "type": "function"
    },
    {
      "inputs": [
        {
          "internalType": "bytes4",
          "name": "interfaceId",
          "type": "bytes4"
        }
      ],
      "name": "supportsInterface",
      "outputs": [
        {
          "internalType": "bool",
          "name": "",
          "type": "bool"
        }
      ],
      "stateMutability": "view",
      "type": "function"
    },
    {
      "inputs": [],
      "name": "symbol",
      "outputs": [
        {
          "internalType": "string",
          "name": "",
          "type": "string"
        }
      ],
      "stateMutability": "view",
      "type": "function"
    },
    {
      "inputs": [],
      "name": "tokenCounter",
      "outputs": [
        {
          "internalType": "uint256",
          "name": "",
          "type": "uint256"
        }
      ],
      "stateMutability": "view",
      "type": "function"
    },
    {
      "inputs": [
        {
          "internalType": "uint256",
          "name": "tokenId",
          "type": "uint256"
        }
      ],
      "name": "tokenURI",
      "outputs": [
        {
          "internalType": "string",
          "name": "",
          "type": "string"
        }
      ],
      "stateMutability": "view",
      "type": "function"
    },
    {
      "inputs": [],
      "name": "totalSupply",
      "outputs": [
        {
          "internalType": "uint256",
          "name": "",
          "type": "uint256"
        }
      ],
      "stateMutability": "view",
      "type": "function"
    },
    {
      "inputs": [
        {
          "internalType": "address",
          "name": "from",
          "type": "address"
        },
        {
          "internalType": "address",
          "name": "to",
          "type": "address"
        },
        {
          "internalType": "uint256",
          "name": "tokenId",
          "type": "uint256"
        }
      ],
      "name": "transferFrom",
      "outputs": [],
      "stateMutability": "nonpayable",
      "type": "function"
    },
    {
      "inputs": [
        {
          "internalType": "address",
          "name": "newOwner",
          "type": "address"
        }
      ],
      "name": "transferOwnership",
      "outputs": [],
      "stateMutability": "nonpayable",
      "type": "function"
    },
    {
      "inputs": [],
      "name": "unpause",
      "outputs": [],
      "stateMutability": "nonpayable",
      "type": "function"
    }
  ],
  "bytecode": "0x60806040523480156200001157600080fd5b5060405162003ec138038062003ec1833981810160405281019062000037919062000370565b336040518060400160405280600f81526020017f436172626f6e4372656469744e465400000000000000000000000000000000008152506040518060400160405280600581526020017f43434e46540000000000000000000000000000000000000000000000000000008152508160009081620000b5919062000646565b508060019081620000c7919062000646565b5050506000600660006101000a81548160ff021916908315150217905550600073ffffffffffffffffffffffffffffffffffffffff168173ffffffffffffffffffffffffffffffffffffffff16036200015a5760006040517f1e4fbdf70000000000000000000000000000000000000000000000000000000081526004016200015191906200073e565b60405180910390fd5b6200016b816200024060201b60201c565b50600060078190555082600860006101000a81548173ffffffffffffffffffffffffffffffffffffffff021916908373ffffffffffffffffffffffffffffffffffffffff16021790555081600960006101000a81548173ffffffffffffffffffffffffffffffffffffffff021916908373ffffffffffffffffffffffffffffffffffffffff16021790555080600a60006101000a81548173ffffffffffffffffffffffffffffffffffffffff021916908373ffffffffffffffffffffffffffffffffffffffff1602179055505050506200075b565b6000600660019054906101000a900473ffffffffffffffffffffffffffffffffffffffff16905081600660016101000a81548173ffffffffffffffffffffffffffffffffffffffff021916908373ffffffffffffffffffffffffffffffffffffffff1602179055508173ffffffffffffffffffffffffffffffffffffffff168173ffffffffffffffffffffffffffffffffffffffff167f8be0079c531659141344cd1fd0a4f28419497f9722a3daafe3b4186f6b6457e060405160405180910390a35050565b600080fd5b600073ffffffffffffffffffffffffffffffffffffffff82169050919050565b600062000338826200030b565b9050919050565b6200034a816200032b565b81146200035657600080fd5b50565b6000815190506200036a816200033f565b92915050565b6000806000606084860312156200038c576200038b62000306565b5b60006200039c8682870162000359565b9350506020620003af8682870162000359565b9250506040620003c28682870162000359565b9150509250925092565b600081519050919050565b7f4e487b7100000000000000000000000000000000000000000000000000000000600052604160045260246000fd5b7f4e487b7100000000000000000000000000000000000000000000000000000000600052602260045260246000fd5b600060028204905060018216806200044e57607f821691505b60208210810362000464576200046362000406565b5b50919050565b60008190508160005260206000209050919050565b60006020601f8301049050919050565b600082821b905092915050565b600060088302620004ce7fffffffffffffffffffffffffffffffffffffffffffffffffffffffffffffffff826200048f565b620004da86836200048f565b95508019841693508086168417925050509392505050565b6000819050919050565b6000819050919050565b600062000527620005216200051b84620004f2565b620004fc565b620004f2565b9050919050565b6000819050919050565b620005438362000506565b6200055b62000552826200052e565b8484546200049c565b825550505050565b600090565b6200057262000563565b6200057f81848462000538565b505050565b5b81811015620005a7576200059b60008262000568565b60018101905062000585565b5050565b601f821115620005f657620005c0816200046a565b620005cb846200047f565b81016020851015620005db578190505b620005f3620005ea856200047f565b83018262000584565b50505b505050565b600082821c905092915050565b60006200061b60001984600802620005fb565b1980831691505092915050565b600062000636838362000608565b9150826002028217905092915050565b6200065182620003cc565b67ffffffffffffffff8111156200066d576200066c620003d7565b5b62000679825462000435565b62000686828285620005ab565b600060209050601f831160018114620006be5760008415620006a9578287015190505b620006b5858262000628565b86555062000725565b601f198416620006ce866200046a565b60005b82811015620006f857848901518255600182019150602085019450602081019050620006d1565b8683101562000718578489015162000714601f89168262000608565b8355505b6001600288020188555050505b505050505050565b62000738816200032b565b82525050565b60006020820190506200075560008301846200072d565b92915050565b613756806200076b6000396000f3fe608060405234801561001057600080fd5b50600436106101c45760003560e01c8063715018a6116100f9578063b1767af511610097578063c87b56dd11610071578063c87b56dd146104bd578063d082e381146104ed578063e985e9c51461050b578063f2fde38b1461053b576101c4565b8063b1767af514610467578063b2a0779e14610485578063b88d4fde146104a1576101c4565b80638456cb59116100d35780638456cb59146104055780638da5cb5b1461040f57806395d89b411461042d578063a22cb4651461044b576101c4565b8063715018a6146103ab578063722350b4146103b5578063840e78fd146103d3576101c4565b80633dd905f1116101665780635c975abb116101405780635c975abb1461030f578063600a389f1461032d5780636352211e1461034b57806370a082311461037b576101c4565b80633dd905f1146102b95780633f4ba83a146102e957806342842e0e146102f3576101c4565b8063095ea7b3116101a2578063095ea7b31461024757806318160ddd1461026357806321897cdd1461028157806323b872dd1461029d576101c4565b806301ffc9a7146101c957806306fdde03146101f9578063081812fc14610217575b600080fd5b6101e360048036038101906101de919061272d565b610557565b6040516101f09190612775565b60405180910390f35b610201610639565b60405161020e9190612820565b60405180910390f35b610231600480360381019061022c9190612878565b6106cb565b60405161023e91906128e6565b60405180910390f35b610261600480360381019061025c919061292d565b6106e7565b005b61026b6106fd565b604051610278919061297c565b60405180910390f35b61029b600480360381019061029691906129cd565b610707565b005b6102b760048036038101906102b291906129fa565b610aae565b005b6102d360048036038101906102ce9190612a4d565b610bb0565b6040516102e09190612775565b60405180910390f35b6102f1610c4b565b005b61030d600480360381019061030891906129fa565b610c5d565b005b610317610c7d565b6040516103249190612775565b60405180910390f35b610335610c94565b6040516103429190612ad9565b60405180910390f35b61036560048036038101906103609190612878565b610cba565b60405161037291906128e6565b60405180910390f35b61039560048036038101906103909190612a4d565b610ccc565b6040516103a2919061297c565b60405180910390f35b6103b3610d86565b005b6103bd610d9a565b6040516103ca9190612b15565b60405180910390f35b6103ed60048036038101906103e89190612a4d565b610dc0565b6040516103fc93929190612b3f565b60405180910390f35b61040d610e0a565b005b610417610e1c565b60405161042491906128e6565b60405180910390f35b610435610e46565b6040516104429190612820565b60405180910390f35b61046560048036038101906104609190612ba2565b610ed8565b005b61046f610eee565b60405161047c9190612c03565b60405180910390f35b61049f600480360381019061049a9190612a4d565b610f14565b005b6104bb60048036038101906104b69190612d53565b6114e5565b005b6104d760048036038101906104d29190612878565b611502565b6040516104e49190612820565b60405180910390f35b6104f561156b565b604051610502919061297c565b60405180910390f35b61052560048036038101906105209190612dd6565b611571565b6040516105329190612775565b60405180910390f35b61055560048036038101906105509190612a4d565b611605565b005b60007f80ac58cd000000000000000000000000000000000000000000000000000000007bffffffffffffffffffffffffffffffffffffffffffffffffffffffff1916827bffffffffffffffffffffffffffffffffffffffffffffffffffffffff1916148061062257507f5b5e139f000000000000000000000000000000000000000000000000000000007bffffffffffffffffffffffffffffffffffffffffffffffffffffffff1916827bffffffffffffffffffffffffffffffffffffffffffffffffffffffff1916145b8061063257506106318261168b565b5b9050919050565b60606000805461064890612e45565b80601f016020809104026020016040519081016040528092919081815260200182805461067490612e45565b80156106c15780601f10610696576101008083540402835291602001916106c1565b820191906000526020600020905b8154815290600101906020018083116106a457829003601f168201915b5050505050905090565b60006106d6826116f5565b506106e08261177d565b9050919050565b6106f982826106f46117ba565b6117c2565b5050565b6000600754905090565b61070f6117d4565b6000801b8103610754576040517f08c379a000000000000000000000000000000000000000000000000000000000815260040161074b90612ec2565b60405180910390fd5b600073ffffffffffffffffffffffffffffffffffffffff16600b60003373ffffffffffffffffffffffffffffffffffffffff1673ffffffffffffffffffffffffffffffffffffffff16815260200190815260200160002060000160009054906101000a900473ffffffffffffffffffffffffffffffffffffffff1673ffffffffffffffffffffffffffffffffffffffff1614610825576040517f08c379a000000000000000000000000000000000000000000000000000000000815260040161081c90612f2e565b60405180910390fd5b600a60009054906101000a900473ffffffffffffffffffffffffffffffffffffffff1673ffffffffffffffffffffffffffffffffffffffff1663433cab2133836040518363ffffffff1660e01b8152600401610882929190612f4e565b602060405180830381865afa15801561089f573d6000803e3d6000fd5b505050506040513d601f19601f820116820180604052508101906108c39190612f8c565b610902576040517f08c379a00000000000000000000000000000000000000000000000000000000081526004016108f990613005565b60405180910390fd5b60405180606001604052803373ffffffffffffffffffffffffffffffffffffffff16815260200182815260200142815250600b60003373ffffffffffffffffffffffffffffffffffffffff1673ffffffffffffffffffffffffffffffffffffffff16815260200190815260200160002060008201518160000160006101000a81548173ffffffffffffffffffffffffffffffffffffffff021916908373ffffffffffffffffffffffffffffffffffffffff16021790555060208201518160010155604082015181600201559050503373ffffffffffffffffffffffffffffffffffffffff167f83de1e71280db675f9563d0566fe85382d2bab1ead7bd1f43ed97dda48a7efdc82604051610a169190613025565b60405180910390a2600960009054906101000a900473ffffffffffffffffffffffffffffffffffffffff1673ffffffffffffffffffffffffffffffffffffffff166377a77400336040518263ffffffff1660e01b8152600401610a7991906128e6565b600060405180830381600087803b158015610a9357600080fd5b505af1158015610aa7573d6000803e3d6000fd5b5050505050565b600073ffffffffffffffffffffffffffffffffffffffff168273ffffffffffffffffffffffffffffffffffffffff1603610b205760006040517f64a0ae92000000000000000000000000000000000000000000000000000000008152600401610b1791906128e6565b60405180910390fd5b6000610b348383610b2f6117ba565b611815565b90508373ffffffffffffffffffffffffffffffffffffffff168173ffffffffffffffffffffffffffffffffffffffff1614610baa578382826040517f64283d7b000000000000000000000000000000000000000000000000000000008152600401610ba193929190613040565b60405180910390fd5b50505050565b60008073ffffffffffffffffffffffffffffffffffffffff16600b60008473ffffffffffffffffffffffffffffffffffffffff1673ffffffffffffffffffffffffffffffffffffffff16815260200190815260200160002060000160009054906101000a900473ffffffffffffffffffffffffffffffffffffffff1673ffffffffffffffffffffffffffffffffffffffff1614159050919050565b610c53611a2f565b610c5b611ab6565b565b610c78838383604051806020016040528060008152506114e5565b505050565b6000600660009054906101000a900460ff16905090565b600960009054906101000a900473ffffffffffffffffffffffffffffffffffffffff1681565b6000610cc5826116f5565b9050919050565b60008073ffffffffffffffffffffffffffffffffffffffff168273ffffffffffffffffffffffffffffffffffffffff1603610d3f5760006040517f89c62b64000000000000000000000000000000000000000000000000000000008152600401610d3691906128e6565b60405180910390fd5b600360008373ffffffffffffffffffffffffffffffffffffffff1673ffffffffffffffffffffffffffffffffffffffff168152602001908152602001600020549050919050565b610d8e611a2f565b610d986000611b19565b565b600a60009054906101000a900473ffffffffffffffffffffffffffffffffffffffff1681565b600b6020528060005260406000206000915090508060000160009054906101000a900473ffffffffffffffffffffffffffffffffffffffff16908060010154908060020154905083565b610e12611a2f565b610e1a611bdf565b565b6000600660019054906101000a900473ffffffffffffffffffffffffffffffffffffffff16905090565b606060018054610e5590612e45565b80601f0160208091040260200160405190810160405280929190818152602001828054610e8190612e45565b8015610ece5780601f10610ea357610100808354040283529160200191610ece565b820191906000526020600020905b815481529060010190602001808311610eb157829003601f168201915b5050505050905090565b610eea610ee36117ba565b8383611c42565b5050565b600860009054906101000a900473ffffffffffffffffffffffffffffffffffffffff1681565b610f1c6117d4565b6000600b60003373ffffffffffffffffffffffffffffffffffffffff1673ffffffffffffffffffffffffffffffffffffffff16815260200190815260200160002090503373ffffffffffffffffffffffffffffffffffffffff168160000160009054906101000a900473ffffffffffffffffffffffffffffffffffffffff1673ffffffffffffffffffffffffffffffffffffffff1614610ff1576040517f08c379a0000000000000000000000000000000000000000000000000000000008152600401610fe8906130e9565b60405180910390fd5b6000429050601e82600201546110079190613138565b811015611049576040517f08c379a0000000000000000000000000000000000000000000000000000000008152600401611040906131b8565b60405180910390fd5b6000600960009054906101000a900473ffffffffffffffffffffffffffffffffffffffff1673ffffffffffffffffffffffffffffffffffffffff166344e61f62336040518263ffffffff1660e01b81526004016110a691906128e6565b602060405180830381865afa1580156110c3573d6000803e3d6000fd5b505050506040513d601f19601f820116820180604052508101906110e791906131ed565b90506000600960009054906101000a900473ffffffffffffffffffffffffffffffffffffffff1673ffffffffffffffffffffffffffffffffffffffff1663e3d45a68336040518263ffffffff1660e01b815260040161114691906128e6565b602060405180830381865afa158015611163573d6000803e3d6000fd5b505050506040513d601f19601f8201168201806040525081019061118791906131ed565b90506000600860009054906101000a900473ffffffffffffffffffffffffffffffffffffffff1673ffffffffffffffffffffffffffffffffffffffff16638de4126d6040518163ffffffff1660e01b8152600401602060405180830381865afa1580156111f8573d6000803e3d6000fd5b505050506040513d601f19601f8201168201806040525081019061121c91906131ed565b905060008311611261576040517f08c379a00000000000000000000000000000000000000000000000000000000081526004016112589061328c565b60405180910390fd5b8082106112a3576040517f08c379a000000000000000000000000000000000000000000000000000000000815260040161129a906132f8565b60405180910390fd5b600081116112e6576040517f08c379a00000000000000000000000000000000000000000000000000000000081526004016112dd9061338a565b60405180910390fd5b60006112f3848385611db1565b90506000620f42408261130691906133d9565b90506000811161134b576040517f08c379a00000000000000000000000000000000000000000000000000000000081526004016113429061347c565b60405180910390fd5b85876002018190555060005b818110156113905761136b89600754611dd8565b6007600081548092919061137e9061349c565b91905055508080600101915050611357565b506000620f4240836113a291906134e4565b9050600085856113b29190613515565b826113bd91906133d9565b9050600960009054906101000a900473ffffffffffffffffffffffffffffffffffffffff1673ffffffffffffffffffffffffffffffffffffffff1663779ada818a60000160009054906101000a900473ffffffffffffffffffffffffffffffffffffffff16836040518363ffffffff1660e01b8152600401611440929190613549565b600060405180830381600087803b15801561145a57600080fd5b505af115801561146e573d6000803e3d6000fd5b505050508973ffffffffffffffffffffffffffffffffffffffff163373ffffffffffffffffffffffffffffffffffffffff167f284f194befe02e4b285bc2a35d3b04c1c2a1015d820f808f3f1154d4869a5c45858b6040516114d1929190613572565b60405180910390a350505050505050505050565b6114f0848484610aae565b6114fc84848484611df6565b50505050565b606061150d826116f5565b506000611518611fad565b905060008151116115385760405180602001604052806000815250611563565b8061154284611fc4565b6040516020016115539291906135d7565b6040516020818303038152906040525b915050919050565b60075481565b6000600560008473ffffffffffffffffffffffffffffffffffffffff1673ffffffffffffffffffffffffffffffffffffffff16815260200190815260200160002060008373ffffffffffffffffffffffffffffffffffffffff1673ffffffffffffffffffffffffffffffffffffffff16815260200190815260200160002060009054906101000a900460ff16905092915050565b61160d611a2f565b600073ffffffffffffffffffffffffffffffffffffffff168173ffffffffffffffffffffffffffffffffffffffff160361167f5760006040517f1e4fbdf700000000000000000000000000000000000000000000000000000000815260040161167691906128e6565b60405180910390fd5b61168881611b19565b50565b60007f01ffc9a7000000000000000000000000000000000000000000000000000000007bffffffffffffffffffffffffffffffffffffffffffffffffffffffff1916827bffffffffffffffffffffffffffffffffffffffffffffffffffffffff1916149050919050565b60008061170183612092565b9050600073ffffffffffffffffffffffffffffffffffffffff168173ffffffffffffffffffffffffffffffffffffffff160361177457826040517f7e27328900000000000000000000000000000000000000000000000000000000815260040161176b919061297c565b60405180910390fd5b80915050919050565b60006004600083815260200190815260200160002060009054906101000a900473ffffffffffffffffffffffffffffffffffffffff169050919050565b600033905090565b6117cf83838360016120cf565b505050565b6117dc610c7d565b15611813576040517fd93c066500000000000000000000000000000000000000000000000000000000815260040160405180910390fd5b565b60008061182184612092565b9050600073ffffffffffffffffffffffffffffffffffffffff168373ffffffffffffffffffffffffffffffffffffffff161461186357611862818486612294565b5b600073ffffffffffffffffffffffffffffffffffffffff168173ffffffffffffffffffffffffffffffffffffffff16146118f4576118a56000856000806120cf565b6001600360008373ffffffffffffffffffffffffffffffffffffffff1673ffffffffffffffffffffffffffffffffffffffff168152602001908152602001600020600082825403925050819055505b600073ffffffffffffffffffffffffffffffffffffffff168573ffffffffffffffffffffffffffffffffffffffff1614611977576001600360008773ffffffffffffffffffffffffffffffffffffffff1673ffffffffffffffffffffffffffffffffffffffff168152602001908152602001600020600082825401925050819055505b846002600086815260200190815260200160002060006101000a81548173ffffffffffffffffffffffffffffffffffffffff021916908373ffffffffffffffffffffffffffffffffffffffff160217905550838573ffffffffffffffffffffffffffffffffffffffff168273ffffffffffffffffffffffffffffffffffffffff167fddf252ad1be2c89b69c2b068fc378daa952ba7f163c4a11628f55a4df523b3ef60405160405180910390a4809150509392505050565b611a376117ba565b73ffffffffffffffffffffffffffffffffffffffff16611a55610e1c565b73ffffffffffffffffffffffffffffffffffffffff1614611ab457611a786117ba565b6040517f118cdaa7000000000000000000000000000000000000000000000000000000008152600401611aab91906128e6565b60405180910390fd5b565b611abe612358565b6000600660006101000a81548160ff0219169083151502179055507f5db9ee0a495bf2e6ff9c91a7834c1ba4fdd244a5e8aa4e537bd38aeae4b073aa611b026117ba565b604051611b0f91906128e6565b60405180910390a1565b6000600660019054906101000a900473ffffffffffffffffffffffffffffffffffffffff16905081600660016101000a81548173ffffffffffffffffffffffffffffffffffffffff021916908373ffffffffffffffffffffffffffffffffffffffff1602179055508173ffffffffffffffffffffffffffffffffffffffff168173ffffffffffffffffffffffffffffffffffffffff167f8be0079c531659141344cd1fd0a4f28419497f9722a3daafe3b4186f6b6457e060405160405180910390a35050565b611be76117d4565b6001600660006101000a81548160ff0219169083151502179055507f62e78cea01bee320cd4e420270b5ea74000d11b0c9f74754ebdbfc544b05a258611c2b6117ba565b604051611c3891906128e6565b60405180910390a1565b600073ffffffffffffffffffffffffffffffffffffffff168273ffffffffffffffffffffffffffffffffffffffff1603611cb357816040517f5b08ba18000000000000000000000000000000000000000000000000000000008152600401611caa91906128e6565b60405180910390fd5b80600560008573ffffffffffffffffffffffffffffffffffffffff1673ffffffffffffffffffffffffffffffffffffffff16815260200190815260200160002060008473ffffffffffffffffffffffffffffffffffffffff1673ffffffffffffffffffffffffffffffffffffffff16815260200190815260200160002060006101000a81548160ff0219169083151502179055508173ffffffffffffffffffffffffffffffffffffffff168373ffffffffffffffffffffffffffffffffffffffff167f17307eab39ab6107e8899845ad3d59bd9653f200f220920489ca2b5937696c3183604051611da49190612775565b60405180910390a3505050565b6000808284611dc09190613515565b85611dcb91906135fb565b9050809150509392505050565b611df2828260405180602001604052806000815250612398565b5050565b60008373ffffffffffffffffffffffffffffffffffffffff163b1115611fa7578273ffffffffffffffffffffffffffffffffffffffff1663150b7a02611e3a6117ba565b8685856040518563ffffffff1660e01b8152600401611e5c9493929190613692565b6020604051808303816000875af1925050508015611e9857506040513d601f19601f82011682018060405250810190611e9591906136f3565b60015b611f1c573d8060008114611ec8576040519150601f19603f3d011682016040523d82523d6000602084013e611ecd565b606091505b506000815103611f1457836040517f64a0ae92000000000000000000000000000000000000000000000000000000008152600401611f0b91906128e6565b60405180910390fd5b805181602001fd5b63150b7a0260e01b7bffffffffffffffffffffffffffffffffffffffffffffffffffffffff1916817bffffffffffffffffffffffffffffffffffffffffffffffffffffffff191614611fa557836040517f64a0ae92000000000000000000000000000000000000000000000000000000008152600401611f9c91906128e6565b60405180910390fd5b505b50505050565b606060405180602001604052806000815250905090565b606060006001611fd3846123b4565b01905060008167ffffffffffffffff811115611ff257611ff1612c28565b5b6040519080825280601f01601f1916602001820160405280156120245781602001600182028036833780820191505090505b509050600082602001820190505b600115612087578080600190039150507f3031323334353637383961626364656600000000000000000000000000000000600a86061a8153600a858161207b5761207a6133aa565b5b04945060008503612032575b819350505050919050565b60006002600083815260200190815260200160002060009054906101000a900473ffffffffffffffffffffffffffffffffffffffff169050919050565b80806121085750600073ffffffffffffffffffffffffffffffffffffffff168273ffffffffffffffffffffffffffffffffffffffff1614155b1561223c576000612118846116f5565b9050600073ffffffffffffffffffffffffffffffffffffffff168373ffffffffffffffffffffffffffffffffffffffff161415801561218357508273ffffffffffffffffffffffffffffffffffffffff168173ffffffffffffffffffffffffffffffffffffffff1614155b801561219657506121948184611571565b155b156121d857826040517fa9fbf51f0000000000000000000000000000000000000000000000000000000081526004016121cf91906128e6565b60405180910390fd5b811561223a57838573ffffffffffffffffffffffffffffffffffffffff168273ffffffffffffffffffffffffffffffffffffffff167f8c5be1e5ebec7d5bd14f71427d1e84f3dd0314c0f7b2291e5b200ac8c7c3b92560405160405180910390a45b505b836004600085815260200190815260200160002060006101000a81548173ffffffffffffffffffffffffffffffffffffffff021916908373ffffffffffffffffffffffffffffffffffffffff16021790555050505050565b61229f838383612507565b61235357600073ffffffffffffffffffffffffffffffffffffffff168373ffffffffffffffffffffffffffffffffffffffff160361231457806040517f7e27328900000000000000000000000000000000000000000000000000000000815260040161230b919061297c565b60405180910390fd5b81816040517f177e802f00000000000000000000000000000000000000000000000000000000815260040161234a929190613549565b60405180910390fd5b505050565b612360610c7d565b612396576040517f8dfc202b00000000000000000000000000000000000000000000000000000000815260040160405180910390fd5b565b6123a283836125c8565b6123af6000848484611df6565b505050565b600080600090507a184f03e93ff9f4daa797ed6e38ed64bf6a1f0100000000000000008310612412577a184f03e93ff9f4daa797ed6e38ed64bf6a1f0100000000000000008381612408576124076133aa565b5b0492506040810190505b6d04ee2d6d415b85acef8100000000831061244f576d04ee2d6d415b85acef81000000008381612445576124446133aa565b5b0492506020810190505b662386f26fc10000831061247e57662386f26fc100008381612474576124736133aa565b5b0492506010810190505b6305f5e10083106124a7576305f5e100838161249d5761249c6133aa565b5b0492506008810190505b61271083106124cc5761271083816124c2576124c16133aa565b5b0492506004810190505b606483106124ef57606483816124e5576124e46133aa565b5b0492506002810190505b600a83106124fe576001810190505b80915050919050565b60008073ffffffffffffffffffffffffffffffffffffffff168373ffffffffffffffffffffffffffffffffffffffff16141580156125bf57508273ffffffffffffffffffffffffffffffffffffffff168473ffffffffffffffffffffffffffffffffffffffff161480612580575061257f8484611571565b5b806125be57508273ffffffffffffffffffffffffffffffffffffffff166125a68361177d565b73ffffffffffffffffffffffffffffffffffffffff16145b5b90509392505050565b600073ffffffffffffffffffffffffffffffffffffffff168273ffffffffffffffffffffffffffffffffffffffff160361263a5760006040517f64a0ae9200000000000000000000000000000000000000000000000000000000815260040161263191906128e6565b60405180910390fd5b600061264883836000611815565b9050600073ffffffffffffffffffffffffffffffffffffffff168173ffffffffffffffffffffffffffffffffffffffff16146126bc5760006040517f73c6ac6e0000000000000000000000000000000000000000000000000000000081526004016126b391906128e6565b60405180910390fd5b505050565b6000604051905090565b600080fd5b600080fd5b60007fffffffff0000000000000000000000000000000000000000000000000000000082169050919050565b61270a816126d5565b811461271557600080fd5b50565b60008135905061272781612701565b92915050565b600060208284031215612743576127426126cb565b5b600061275184828501612718565b91505092915050565b60008115159050919050565b61276f8161275a565b82525050565b600060208201905061278a6000830184612766565b92915050565b600081519050919050565b600082825260208201905092915050565b60005b838110156127ca5780820151818401526020810190506127af565b60008484015250505050565b6000601f19601f8301169050919050565b60006127f282612790565b6127fc818561279b565b935061280c8185602086016127ac565b612815816127d6565b840191505092915050565b6000602082019050818103600083015261283a81846127e7565b905092915050565b6000819050919050565b61285581612842565b811461286057600080fd5b50565b6000813590506128728161284c565b92915050565b60006020828403121561288e5761288d6126cb565b5b600061289c84828501612863565b91505092915050565b600073ffffffffffffffffffffffffffffffffffffffff82169050919050565b60006128d0826128a5565b9050919050565b6128e0816128c5565b82525050565b60006020820190506128fb60008301846128d7565b92915050565b61290a816128c5565b811461291557600080fd5b50565b60008135905061292781612901565b92915050565b60008060408385031215612944576129436126cb565b5b600061295285828601612918565b925050602061296385828601612863565b9150509250929050565b61297681612842565b82525050565b6000602082019050612991600083018461296d565b92915050565b6000819050919050565b6129aa81612997565b81146129b557600080fd5b50565b6000813590506129c7816129a1565b92915050565b6000602082840312156129e3576129e26126cb565b5b60006129f1848285016129b8565b91505092915050565b600080600060608486031215612a1357612a126126cb565b5b6000612a2186828701612918565b9350506020612a3286828701612918565b9250506040612a4386828701612863565b9150509250925092565b600060208284031215612a6357612a626126cb565b5b6000612a7184828501612918565b91505092915050565b6000819050919050565b6000612a9f612a9a612a95846128a5565b612a7a565b6128a5565b9050919050565b6000612ab182612a84565b9050919050565b6000612ac382612aa6565b9050919050565b612ad381612ab8565b82525050565b6000602082019050612aee6000830184612aca565b92915050565b6000612aff82612aa6565b9050919050565b612b0f81612af4565b82525050565b6000602082019050612b2a6000830184612b06565b92915050565b612b3981612997565b82525050565b6000606082019050612b5460008301866128d7565b612b616020830185612b30565b612b6e604083018461296d565b949350505050565b612b7f8161275a565b8114612b8a57600080fd5b50565b600081359050612b9c81612b76565b92915050565b60008060408385031215612bb957612bb86126cb565b5b6000612bc785828601612918565b9250506020612bd885828601612b8d565b9150509250929050565b6000612bed82612aa6565b9050919050565b612bfd81612be2565b82525050565b6000602082019050612c186000830184612bf4565b92915050565b600080fd5b600080fd5b7f4e487b7100000000000000000000000000000000000000000000000000000000600052604160045260246000fd5b612c60826127d6565b810181811067ffffffffffffffff82111715612c7f57612c7e612c28565b5b80604052505050565b6000612c926126c1565b9050612c9e8282612c57565b919050565b600067ffffffffffffffff821115612cbe57612cbd612c28565b5b612cc7826127d6565b9050602081019050919050565b82818337600083830152505050565b6000612cf6612cf184612ca3565b612c88565b905082815260208101848484011115612d1257612d11612c23565b5b612d1d848285612cd4565b509392505050565b600082601f830112612d3a57612d39612c1e565b5b8135612d4a848260208601612ce3565b91505092915050565b60008060008060808587031215612d6d57612d6c6126cb565b5b6000612d7b87828801612918565b9450506020612d8c87828801612918565b9350506040612d9d87828801612863565b925050606085013567ffffffffffffffff811115612dbe57612dbd6126d0565b5b612dca87828801612d25565b91505092959194509250565b60008060408385031215612ded57612dec6126cb565b5b6000612dfb85828601612918565b9250506020612e0c85828601612918565b9150509250929050565b7f4e487b7100000000000000000000000000000000000000000000000000000000600052602260045260246000fd5b60006002820490506001821680612e5d57607f821691505b602082108103612e7057612e6f612e16565b5b50919050565b7f446174612068617368206d7573742062652070726f7669646564000000000000600082015250565b6000612eac601a8361279b565b9150612eb782612e76565b602082019050919050565b60006020820190508181036000830152612edb81612e9f565b9050919050565b7f50726f6a65637420616c72656164792072656769737465726564000000000000600082015250565b6000612f18601a8361279b565b9150612f2382612ee2565b602082019050919050565b60006020820190508181036000830152612f4781612f0b565b9050919050565b6000604082019050612f6360008301856128d7565b612f706020830184612b30565b9392505050565b600081519050612f8681612b76565b92915050565b600060208284031215612fa257612fa16126cb565b5b6000612fb084828501612f77565b91505092915050565b7f496e76616c6964206f72207265766f6b65642070726f6a656374206861736800600082015250565b6000612fef601f8361279b565b9150612ffa82612fb9565b602082019050919050565b6000602082019050818103600083015261301e81612fe2565b9050919050565b600060208201905061303a6000830184612b30565b92915050565b600060608201905061305560008301866128d7565b613062602083018561296d565b61306f60408301846128d7565b949350505050565b7f4f6e6c79207468652070726f6a656374206f776e65722063616e206d696e742060008201527f4e46547300000000000000000000000000000000000000000000000000000000602082015250565b60006130d360248361279b565b91506130de82613077565b604082019050919050565b60006020820190508181036000830152613102816130c6565b9050919050565b7f4e487b7100000000000000000000000000000000000000000000000000000000600052601160045260246000fd5b600061314382612842565b915061314e83612842565b925082820190508082111561316657613165613109565b5b92915050565b7f4d696e74696e672064656c6179206e6f74206d65740000000000000000000000600082015250565b60006131a260158361279b565b91506131ad8261316c565b602082019050919050565b600060208201905081810360008301526131d181613195565b9050919050565b6000815190506131e78161284c565b92915050565b600060208284031215613203576132026126cb565b5b6000613211848285016131d8565b91505092915050565b7f456e657267792070726f6475636564206d75737420626520677265617465722060008201527f7468616e207a65726f0000000000000000000000000000000000000000000000602082015250565b600061327660298361279b565b91506132818261321a565b604082019050919050565b600060208201905081810360008301526132a581613269565b9050919050565b7f50726f6a65637420656d697373696f6e7320746f6f2068696768000000000000600082015250565b60006132e2601a8361279b565b91506132ed826132ac565b602082019050919050565b60006020820190508181036000830152613311816132d5565b9050919050565b7f4176657261676520656d697373696f6e7320666163746f72206e6f742075706460008201527f6174656400000000000000000000000000000000000000000000000000000000602082015250565b600061337460248361279b565b915061337f82613318565b604082019050919050565b600060208201905081810360008301526133a381613367565b9050919050565b7f4e487b7100000000000000000000000000000000000000000000000000000000600052601260045260246000fd5b60006133e482612842565b91506133ef83612842565b9250826133ff576133fe6133aa565b5b828204905092915050565b7f496e73756666696369656e7420434f3220726564756374696f6e20666f72206d60008201527f696e74696e670000000000000000000000000000000000000000000000000000602082015250565b600061346660268361279b565b91506134718261340a565b604082019050919050565b6000602082019050818103600083015261349581613459565b9050919050565b60006134a782612842565b91507fffffffffffffffffffffffffffffffffffffffffffffffffffffffffffffffff82036134d9576134d8613109565b5b600182019050919050565b60006134ef82612842565b91506134fa83612842565b92508261350a576135096133aa565b5b828206905092915050565b600061352082612842565b915061352b83612842565b925082820390508181111561354357613542613109565b5b92915050565b600060408201905061355e60008301856128d7565b61356b602083018461296d565b9392505050565b6000604082019050613587600083018561296d565b613594602083018461296d565b9392505050565b600081905092915050565b60006135b182612790565b6135bb818561359b565b93506135cb8185602086016127ac565b80840191505092915050565b60006135e382856135a6565b91506135ef82846135a6565b91508190509392505050565b600061360682612842565b915061361183612842565b925082820261361f81612842565b9150828204841483151761363657613635613109565b5b5092915050565b600081519050919050565b600082825260208201905092915050565b60006136648261363d565b61366e8185613648565b935061367e8185602086016127ac565b613687816127d6565b840191505092915050565b60006080820190506136a760008301876128d7565b6136b460208301866128d7565b6136c1604083018561296d565b81810360608301526136d38184613659565b905095945050505050565b6000815190506136ed81612701565b92915050565b600060208284031215613709576137086126cb565b5b6000613717848285016136de565b9150509291505056fea2646970667358221220333fe430dad6eb27be4096f279c8ae6b5a05d71313bf400efb5aac3c51ba3a0c64736f6c63430008180033",
  "linkReferences": {},
  "deployedLinkReferences": {}
}