{
  "_format": "hh-sol-artifact-1",
  "contractName": "MockProjectEmissionsOracle",
  "sourceName": "contracts/MockProjectEmissionsOracle.sol",
  "abi": [
    {
      "inputs": [],
      "stateMutability": "nonpayable",
      "type": "constructor"
    },
    {
      "inputs": [
        {
          "internalType": "address",
          "name": "source",
          "type": "address"
        }
      ],
      "name": "addTrustedSource",
      "outputs": [],
      "stateMutability": "nonpayable",
      "type": "function"
    },
    {
      "inputs": [],
      "name": "admin",
      "outputs": [
        {
          "internalType": "address",
          "name": "",
          "type": "address"
        }
      ],
      "stateMutability": "view",
      "type": "function"
    },
    {
      "inputs": [
        {
          "internalType": "address",
          "name": "",
          "type": "address"
        }
      ],
      "name": "authorizedCallers",
      "outputs": [
        {
          "internalType": "bool",
          "name": "",
          "type": "bool"
        }
      ],
      "stateMutability": "view",
      "type": "function"
    },
    {
      "inputs": [
        {
          "internalType": "address",
          "name": "caller",
          "type": "address"
        }
      ],
      "name": "deauthorizeCaller",
      "outputs": [],
      "stateMutability": "nonpayable",
      "type": "function"
    },
    {
      "inputs": [
        {
          "internalType": "address",
          "name": "",
          "type": "address"
        }
      ],
      "name": "energyProducedData",
      "outputs": [
        {
          "internalType": "uint256",
          "name": "",
          "type": "uint256"
        }
      ],
      "stateMutability": "view",
      "type": "function"
    },
    {
      "inputs": [
        {
          "internalType": "address",
          "name": "project",
          "type": "address"
        }
      ],
      "name": "getEnergyProduced",
      "outputs": [
        {
          "internalType": "uint256",
          "name": "",
          "type": "uint256"
        }
      ],
      "stateMutability": "view",
      "type": "function"
    },
    {
      "inputs": [
        {
          "internalType": "address",
          "name": "project",
          "type": "address"
        }
      ],
      "name": "getProjectEmissionsData",
      "outputs": [
        {
          "internalType": "uint256",
          "name": "",
          "type": "uint256"
        }
      ],
      "stateMutability": "view",
      "type": "function"
    },
    {
      "inputs": [
        {
          "internalType": "address",
          "name": "",
          "type": "address"
        }
      ],
      "name": "projectEmissionsData",
      "outputs": [
        {
          "internalType": "uint256",
          "name": "",
          "type": "uint256"
        }
      ],
      "stateMutability": "view",
      "type": "function"
    },
    {
      "inputs": [
        {
          "internalType": "address",
          "name": "project",
          "type": "address"
        }
      ],
      "name": "registerProject",
      "outputs": [],
      "stateMutability": "nonpayable",
      "type": "function"
    },
    {
      "inputs": [
        {
          "internalType": "address",
          "name": "",
          "type": "address"
        }
      ],
      "name": "registeredProjects",
      "outputs": [
        {
          "internalType": "bool",
          "name": "",
          "type": "bool"
        }
      ],
      "stateMutability": "view",
      "type": "function"
    },
    {
      "inputs": [
        {
          "internalType": "address",
          "name": "source",
          "type": "address"
        }
      ],
      "name": "removeTrustedSource",
      "outputs": [],
      "stateMutability": "nonpayable",
      "type": "function"
    },
    {
      "inputs": [
        {
          "internalType": "address",
          "name": "",
          "type": "address"
        }
      ],
      "name": "trustedSources",
      "outputs": [
        {
          "internalType": "bool",
          "name": "",
          "type": "bool"
        }
      ],
      "stateMutability": "view",
      "type": "function"
    },
    {
      "inputs": [
        {
          "internalType": "address",
          "name": "project",
          "type": "address"
        },
        {
          "internalType": "uint256",
          "name": "energyProduced",
          "type": "uint256"
        },
        {
          "internalType": "uint256",
          "name": "emissions",
          "type": "uint256"
        }
      ],
      "name": "updateProjectData",
      "outputs": [],
      "stateMutability": "nonpayable",
      "type": "function"
    },
    {
      "inputs": [
        {
          "internalType": "address",
          "name": "project",
          "type": "address"
        },
        {
          "internalType": "uint256",
          "name": "remainingEnergy",
          "type": "uint256"
        }
      ],
      "name": "updateRemainingEnergy",
      "outputs": [],
      "stateMutability": "nonpayable",
      "type": "function"
    }
  ],
  "bytecode": "0x608060405234801561001057600080fd5b50336000806101000a81548173ffffffffffffffffffffffffffffffffffffffff021916908373ffffffffffffffffffffffffffffffffffffffff160217905550611169806100606000396000f3fe608060405234801561001057600080fd5b50600436106100ea5760003560e01c80637b61e1d31161008c578063c541cfa511610066578063c541cfa51461026b578063e3d45a681461029b578063e5782278146102cb578063f851a440146102e7576100ea565b80637b61e1d3146101ef5780639f2440211461021f578063ae3f9c271461024f576100ea565b8063536fff6c116100c8578063536fff6c1461016b5780636873c21d1461019b578063779ada81146101b757806377a77400146101d3576100ea565b806344e61f62146100ef5780634c31957f1461011f578063511fb40f1461014f575b600080fd5b61010960048036038101906101049190610cd7565b610305565b6040516101169190610d1d565b60405180910390f35b61013960048036038101906101349190610cd7565b6103da565b6040516101469190610d53565b60405180910390f35b61016960048036038101906101649190610d9a565b6103fa565b005b61018560048036038101906101809190610cd7565b6105b1565b6040516101929190610d53565b60405180910390f35b6101b560048036038101906101b09190610cd7565b6105d1565b005b6101d160048036038101906101cc9190610ded565b6106ba565b005b6101ed60048036038101906101e89190610cd7565b61081a565b005b61020960048036038101906102049190610cd7565b61095a565b6040516102169190610d1d565b60405180910390f35b61023960048036038101906102349190610cd7565b610972565b6040516102469190610d53565b60405180910390f35b61026960048036038101906102649190610cd7565b610992565b005b61028560048036038101906102809190610cd7565b610a7b565b6040516102929190610d1d565b60405180910390f35b6102b560048036038101906102b09190610cd7565b610a93565b6040516102c29190610d1d565b60405180910390f35b6102e560048036038101906102e09190610cd7565b610b68565b005b6102ef610c50565b6040516102fc9190610e3c565b60405180910390f35b6000600260008373ffffffffffffffffffffffffffffffffffffffff1673ffffffffffffffffffffffffffffffffffffffff16815260200190815260200160002060009054906101000a900460ff16610393576040517f08c379a000000000000000000000000000000000000000000000000000000000815260040161038a90610eb4565b60405180910390fd5b600360008373ffffffffffffffffffffffffffffffffffffffff1673ffffffffffffffffffffffffffffffffffffffff168152602001908152602001600020549050919050565b60016020528060005260406000206000915054906101000a900460ff1681565b600160003373ffffffffffffffffffffffffffffffffffffffff1673ffffffffffffffffffffffffffffffffffffffff16815260200190815260200160002060009054906101000a900460ff16610486576040517f08c379a000000000000000000000000000000000000000000000000000000000815260040161047d90610f46565b60405180910390fd5b600260008473ffffffffffffffffffffffffffffffffffffffff1673ffffffffffffffffffffffffffffffffffffffff16815260200190815260200160002060009054906101000a900460ff16610512576040517f08c379a000000000000000000000000000000000000000000000000000000000815260040161050990610eb4565b60405180910390fd5b81600360008573ffffffffffffffffffffffffffffffffffffffff1673ffffffffffffffffffffffffffffffffffffffff16815260200190815260200160002060008282546105619190610f95565b9250508190555080600460008573ffffffffffffffffffffffffffffffffffffffff1673ffffffffffffffffffffffffffffffffffffffff16815260200190815260200160002081905550505050565b60056020528060005260406000206000915054906101000a900460ff1681565b60008054906101000a900473ffffffffffffffffffffffffffffffffffffffff1673ffffffffffffffffffffffffffffffffffffffff163373ffffffffffffffffffffffffffffffffffffffff161461065f576040517f08c379a00000000000000000000000000000000000000000000000000000000081526004016106569061103b565b60405180910390fd5b6000600560008373ffffffffffffffffffffffffffffffffffffffff1673ffffffffffffffffffffffffffffffffffffffff16815260200190815260200160002060006101000a81548160ff02191690831515021790555050565b600260008373ffffffffffffffffffffffffffffffffffffffff1673ffffffffffffffffffffffffffffffffffffffff16815260200190815260200160002060009054906101000a900460ff16610746576040517f08c379a000000000000000000000000000000000000000000000000000000000815260040161073d90610eb4565b60405180910390fd5b600560008373ffffffffffffffffffffffffffffffffffffffff1673ffffffffffffffffffffffffffffffffffffffff16815260200190815260200160002060009054906101000a900460ff166107d2576040517f08c379a00000000000000000000000000000000000000000000000000000000081526004016107c9906110a7565b60405180910390fd5b80600360008473ffffffffffffffffffffffffffffffffffffffff1673ffffffffffffffffffffffffffffffffffffffff168152602001908152602001600020819055505050565b600260008273ffffffffffffffffffffffffffffffffffffffff1673ffffffffffffffffffffffffffffffffffffffff16815260200190815260200160002060009054906101000a900460ff16156108a7576040517f08c379a000000000000000000000000000000000000000000000000000000000815260040161089e90611113565b60405180910390fd5b6001600260008373ffffffffffffffffffffffffffffffffffffffff1673ffffffffffffffffffffffffffffffffffffffff16815260200190815260200160002060006101000a81548160ff0219169083151502179055506001600560008373ffffffffffffffffffffffffffffffffffffffff1673ffffffffffffffffffffffffffffffffffffffff16815260200190815260200160002060006101000a81548160ff02191690831515021790555050565b60046020528060005260406000206000915090505481565b60026020528060005260406000206000915054906101000a900460ff1681565b60008054906101000a900473ffffffffffffffffffffffffffffffffffffffff1673ffffffffffffffffffffffffffffffffffffffff163373ffffffffffffffffffffffffffffffffffffffff1614610a20576040517f08c379a0000000000000000000000000000000000000000000000000000000008152600401610a179061103b565b60405180910390fd5b6000600160008373ffffffffffffffffffffffffffffffffffffffff1673ffffffffffffffffffffffffffffffffffffffff16815260200190815260200160002060006101000a81548160ff02191690831515021790555050565b60036020528060005260406000206000915090505481565b6000600260008373ffffffffffffffffffffffffffffffffffffffff1673ffffffffffffffffffffffffffffffffffffffff16815260200190815260200160002060009054906101000a900460ff16610b21576040517f08c379a0000000000000000000000000000000000000000000000000000000008152600401610b1890610eb4565b60405180910390fd5b600460008373ffffffffffffffffffffffffffffffffffffffff1673ffffffffffffffffffffffffffffffffffffffff168152602001908152602001600020549050919050565b60008054906101000a900473ffffffffffffffffffffffffffffffffffffffff1673ffffffffffffffffffffffffffffffffffffffff163373ffffffffffffffffffffffffffffffffffffffff1614610bf6576040517f08c379a0000000000000000000000000000000000000000000000000000000008152600401610bed9061103b565b60405180910390fd5b60018060008373ffffffffffffffffffffffffffffffffffffffff1673ffffffffffffffffffffffffffffffffffffffff16815260200190815260200160002060006101000a81548160ff02191690831515021790555050565b60008054906101000a900473ffffffffffffffffffffffffffffffffffffffff1681565b600080fd5b600073ffffffffffffffffffffffffffffffffffffffff82169050919050565b6000610ca482610c79565b9050919050565b610cb481610c99565b8114610cbf57600080fd5b50565b600081359050610cd181610cab565b92915050565b600060208284031215610ced57610cec610c74565b5b6000610cfb84828501610cc2565b91505092915050565b6000819050919050565b610d1781610d04565b82525050565b6000602082019050610d326000830184610d0e565b92915050565b60008115159050919050565b610d4d81610d38565b82525050565b6000602082019050610d686000830184610d44565b92915050565b610d7781610d04565b8114610d8257600080fd5b50565b600081359050610d9481610d6e565b92915050565b600080600060608486031215610db357610db2610c74565b5b6000610dc186828701610cc2565b9350506020610dd286828701610d85565b9250506040610de386828701610d85565b9150509250925092565b60008060408385031215610e0457610e03610c74565b5b6000610e1285828601610cc2565b9250506020610e2385828601610d85565b9150509250929050565b610e3681610c99565b82525050565b6000602082019050610e516000830184610e2d565b92915050565b600082825260208201905092915050565b7f50726f6a656374206e6f74207265676973746572656400000000000000000000600082015250565b6000610e9e601683610e57565b9150610ea982610e68565b602082019050919050565b60006020820190508181036000830152610ecd81610e91565b9050919050565b7f4f6e6c79207472757374656420736f75726365732063616e2063616c6c20746860008201527f69732066756e6374696f6e000000000000000000000000000000000000000000602082015250565b6000610f30602b83610e57565b9150610f3b82610ed4565b604082019050919050565b60006020820190508181036000830152610f5f81610f23565b9050919050565b7f4e487b7100000000000000000000000000000000000000000000000000000000600052601160045260246000fd5b6000610fa082610d04565b9150610fab83610d04565b9250828201905080821115610fc357610fc2610f66565b5b92915050565b7f4f6e6c792061646d696e2063616e2063616c6c20746869732066756e6374696f60008201527f6e00000000000000000000000000000000000000000000000000000000000000602082015250565b6000611025602183610e57565b915061103082610fc9565b604082019050919050565b6000602082019050818103600083015261105481611018565b9050919050565b7f4e6f7420616e20617574686f72697a65642063616c6c65720000000000000000600082015250565b6000611091601883610e57565b915061109c8261105b565b602082019050919050565b600060208201905081810360008301526110c081611084565b9050919050565b7f50726f6a65637420697320616c72656164792072656769737465726564000000600082015250565b60006110fd601d83610e57565b9150611108826110c7565b602082019050919050565b6000602082019050818103600083015261112c816110f0565b905091905056fea2646970667358221220ccdfbd2183ffb3807fc20b2088bf146238b3059273eb944db9b08716f46dfed864736f6c63430008180033",
  "linkReferences": {},
  "deployedLinkReferences": {}
}