{
  "_format": "hh-sol-artifact-1",
  "contractName": "MockAverageEmissionsOracle",
  "sourceName": "contracts/MockAverageEmissionsOracle.sol",
  "abi": [
    {
      "inputs": [],
      "stateMutability": "nonpayable",
      "type": "constructor"
    },
    {
      "inputs": [
        {
          "internalType": "address",
          "name": "source",
          "type": "address"
        }
      ],
      "name": "addTrustedSource",
      "outputs": [],
      "stateMutability": "nonpayable",
      "type": "function"
    },
    {
      "inputs": [],
      "name": "admin",
      "outputs": [
        {
          "internalType": "address",
          "name": "",
          "type": "address"
        }
      ],
      "stateMutability": "view",
      "type": "function"
    },
    {
      "inputs": [],
      "name": "averageEmissionsFactor",
      "outputs": [
        {
          "internalType": "uint256",
          "name": "",
          "type": "uint256"
        }
      ],
      "stateMutability": "view",
      "type": "function"
    },
    {
      "inputs": [],
      "name": "getAverageEmissionsFactor",
      "outputs": [
        {
          "internalType": "uint256",
          "name": "",
          "type": "uint256"
        }
      ],
      "stateMutability": "view",
      "type": "function"
    },
    {
      "inputs": [
        {
          "internalType": "address",
          "name": "source",
          "type": "address"
        }
      ],
      "name": "removeTrustedSource",
      "outputs": [],
      "stateMutability": "nonpayable",
      "type": "function"
    },
    {
      "inputs": [
        {
          "internalType": "address",
          "name": "",
          "type": "address"
        }
      ],
      "name": "trustedSources",
      "outputs": [
        {
          "internalType": "bool",
          "name": "",
          "type": "bool"
        }
      ],
      "stateMutability": "view",
      "type": "function"
    },
    {
      "inputs": [
        {
          "internalType": "uint256",
          "name": "emissionsFactor",
          "type": "uint256"
        }
      ],
      "name": "updateAverageEmissionsFactor",
      "outputs": [],
      "stateMutability": "nonpayable",
      "type": "function"
    }
  ],
  "bytecode": "0x608060405234801561001057600080fd5b50336000806101000a81548173ffffffffffffffffffffffffffffffffffffffff021916908373ffffffffffffffffffffffffffffffffffffffff160217905550610703806100606000396000f3fe608060405234801561001057600080fd5b506004361061007d5760003560e01c8063ae3f9c271161005b578063ae3f9c27146100ec578063e578227814610108578063f851a44014610124578063fcb30e96146101425761007d565b80633b0dfd67146100825780634c31957f1461009e5780638de4126d146100ce575b600080fd5b61009c60048036038101906100979190610456565b610160565b005b6100b860048036038101906100b391906104e1565b6101f6565b6040516100c59190610529565b60405180910390f35b6100d6610216565b6040516100e39190610553565b60405180910390f35b610106600480360381019061010191906104e1565b610220565b005b610122600480360381019061011d91906104e1565b610309565b005b61012c6103f1565b604051610139919061057d565b60405180910390f35b61014a610415565b6040516101579190610553565b60405180910390f35b600160003373ffffffffffffffffffffffffffffffffffffffff1673ffffffffffffffffffffffffffffffffffffffff16815260200190815260200160002060009054906101000a900460ff166101ec576040517f08c379a00000000000000000000000000000000000000000000000000000000081526004016101e39061061b565b60405180910390fd5b8060028190555050565b60016020528060005260406000206000915054906101000a900460ff1681565b6000600254905090565b60008054906101000a900473ffffffffffffffffffffffffffffffffffffffff1673ffffffffffffffffffffffffffffffffffffffff163373ffffffffffffffffffffffffffffffffffffffff16146102ae576040517f08c379a00000000000000000000000000000000000000000000000000000000081526004016102a5906106ad565b60405180910390fd5b6000600160008373ffffffffffffffffffffffffffffffffffffffff1673ffffffffffffffffffffffffffffffffffffffff16815260200190815260200160002060006101000a81548160ff02191690831515021790555050565b60008054906101000a900473ffffffffffffffffffffffffffffffffffffffff1673ffffffffffffffffffffffffffffffffffffffff163373ffffffffffffffffffffffffffffffffffffffff1614610397576040517f08c379a000000000000000000000000000000000000000000000000000000000815260040161038e906106ad565b60405180910390fd5b60018060008373ffffffffffffffffffffffffffffffffffffffff1673ffffffffffffffffffffffffffffffffffffffff16815260200190815260200160002060006101000a81548160ff02191690831515021790555050565b60008054906101000a900473ffffffffffffffffffffffffffffffffffffffff1681565b60025481565b600080fd5b6000819050919050565b61043381610420565b811461043e57600080fd5b50565b6000813590506104508161042a565b92915050565b60006020828403121561046c5761046b61041b565b5b600061047a84828501610441565b91505092915050565b600073ffffffffffffffffffffffffffffffffffffffff82169050919050565b60006104ae82610483565b9050919050565b6104be816104a3565b81146104c957600080fd5b50565b6000813590506104db816104b5565b92915050565b6000602082840312156104f7576104f661041b565b5b6000610505848285016104cc565b91505092915050565b60008115159050919050565b6105238161050e565b82525050565b600060208201905061053e600083018461051a565b92915050565b61054d81610420565b82525050565b60006020820190506105686000830184610544565b92915050565b610577816104a3565b82525050565b6000602082019050610592600083018461056e565b92915050565b600082825260208201905092915050565b7f4f6e6c79207472757374656420736f75726365732063616e2063616c6c20746860008201527f69732066756e6374696f6e000000000000000000000000000000000000000000602082015250565b6000610605602b83610598565b9150610610826105a9565b604082019050919050565b60006020820190508181036000830152610634816105f8565b9050919050565b7f4f6e6c792061646d696e2063616e2063616c6c20746869732066756e6374696f60008201527f6e00000000000000000000000000000000000000000000000000000000000000602082015250565b6000610697602183610598565b91506106a28261063b565b604082019050919050565b600060208201905081810360008301526106c68161068a565b905091905056fea2646970667358221220465dae1a1470f0bd1be47f9ac16ed242f451ff966587f5e9a4e321f835eb50e564736f6c63430008180033",
  "linkReferences": {},
  "deployedLinkReferences": {}
}