{
  "_format": "hh-sol-artifact-1",
  "contractName": "ProjectApproval",
  "sourceName": "contracts/ProjectApproval.sol",
  "abi": [
    {
      "inputs": [],
      "stateMutability": "nonpayable",
      "type": "constructor"
    },
    {
      "anonymous": false,
      "inputs": [
        {
          "indexed": true,
          "internalType": "address",
          "name": "owner",
          "type": "address"
        },
        {
          "indexed": false,
          "internalType": "bytes32",
          "name": "approvalHash",
          "type": "bytes32"
        }
      ],
      "name": "ProjectApproved",
      "type": "event"
    },
    {
      "anonymous": false,
      "inputs": [
        {
          "indexed": true,
          "internalType": "address",
          "name": "owner",
          "type": "address"
        }
      ],
      "name": "ProjectRevoked",
      "type": "event"
    },
    {
      "anonymous": false,
      "inputs": [
        {
          "indexed": true,
          "internalType": "address",
          "name": "owner",
          "type": "address"
        },
        {
          "indexed": false,
          "internalType": "bytes32",
          "name": "projectDetailsHash",
          "type": "bytes32"
        },
        {
          "indexed": false,
          "internalType": "bytes32",
          "name": "certificateHash",
          "type": "bytes32"
        }
      ],
      "name": "ProjectSubmitted",
      "type": "event"
    },
    {
      "inputs": [
        {
          "internalType": "address",
          "name": "owner",
          "type": "address"
        }
      ],
      "name": "approveProject",
      "outputs": [],
      "stateMutability": "nonpayable",
      "type": "function"
    },
    {
      "inputs": [
        {
          "internalType": "address",
          "name": "",
          "type": "address"
        }
      ],
      "name": "approvedProjects",
      "outputs": [
        {
          "internalType": "bytes32",
          "name": "",
          "type": "bytes32"
        }
      ],
      "stateMutability": "view",
      "type": "function"
    },
    {
      "inputs": [],
      "name": "approver",
      "outputs": [
        {
          "internalType": "address",
          "name": "",
          "type": "address"
        }
      ],
      "stateMutability": "view",
      "type": "function"
    },
    {
      "inputs": [
        {
          "internalType": "address",
          "name": "owner",
          "type": "address"
        }
      ],
      "name": "getProject",
      "outputs": [
        {
          "internalType": "bytes32",
          "name": "",
          "type": "bytes32"
        },
        {
          "internalType": "bytes32",
          "name": "",
          "type": "bytes32"
        },
        {
          "internalType": "bool",
          "name": "",
          "type": "bool"
        }
      ],
      "stateMutability": "view",
      "type": "function"
    },
    {
      "inputs": [
        {
          "internalType": "address",
          "name": "",
          "type": "address"
        }
      ],
      "name": "hasSubmitted",
      "outputs": [
        {
          "internalType": "bool",
          "name": "",
          "type": "bool"
        }
      ],
      "stateMutability": "view",
      "type": "function"
    },
    {
      "inputs": [
        {
          "internalType": "address",
          "name": "owner",
          "type": "address"
        }
      ],
      "name": "isProjectRevoked",
      "outputs": [
        {
          "internalType": "bool",
          "name": "",
          "type": "bool"
        }
      ],
      "stateMutability": "view",
      "type": "function"
    },
    {
      "inputs": [
        {
          "internalType": "address",
          "name": "owner",
          "type": "address"
        },
        {
          "internalType": "bytes32",
          "name": "approvalHash",
          "type": "bytes32"
        }
      ],
      "name": "isValidProjectHash",
      "outputs": [
        {
          "internalType": "bool",
          "name": "",
          "type": "bool"
        }
      ],
      "stateMutability": "view",
      "type": "function"
    },
    {
      "inputs": [
        {
          "internalType": "address",
          "name": "owner",
          "type": "address"
        }
      ],
      "name": "revokeProject",
      "outputs": [],
      "stateMutability": "nonpayable",
      "type": "function"
    },
    {
      "inputs": [
        {
          "internalType": "address",
          "name": "",
          "type": "address"
        }
      ],
      "name": "revokedProjects",
      "outputs": [
        {
          "internalType": "bool",
          "name": "",
          "type": "bool"
        }
      ],
      "stateMutability": "view",
      "type": "function"
    },
    {
      "inputs": [
        {
          "internalType": "bytes32",
          "name": "projectDetailsHash",
          "type": "bytes32"
        },
        {
          "internalType": "bytes32",
          "name": "certificateHash",
          "type": "bytes32"
        }
      ],
      "name": "submitProject",
      "outputs": [],
      "stateMutability": "nonpayable",
      "type": "function"
    },
    {
      "inputs": [
        {
          "internalType": "address",
          "name": "",
          "type": "address"
        }
      ],
      "name": "submittedProjects",
      "outputs": [
        {
          "internalType": "bytes32",
          "name": "projectDetailsHash",
          "type": "bytes32"
        },
        {
          "internalType": "bytes32",
          "name": "certificateHash",
          "type": "bytes32"
        },
        {
          "internalType": "bool",
          "name": "isApproved",
          "type": "bool"
        }
      ],
      "stateMutability": "view",
      "type": "function"
    }
  ],
  "bytecode": "0x608060405234801561001057600080fd5b50336000806101000a81548173ffffffffffffffffffffffffffffffffffffffff021916908373ffffffffffffffffffffffffffffffffffffffff160217905550611375806100606000396000f3fe608060405234801561001057600080fd5b50600436106100a95760003560e01c80637a9596fd116100715780637a9596fd1461017a5780638494b328146101aa57806393138993146101c6578063a313fbf2146101f6578063be26175214610226578063f987070514610242576100a9565b8063141a8dd8146100ae578063388044b3146100cc578063433cab21146100fc5780636620a4801461012c57806371f4e90814610148575b600080fd5b6100b6610274565b6040516100c39190610c8e565b60405180910390f35b6100e660048036038101906100e19190610cda565b610298565b6040516100f39190610d22565b60405180910390f35b61011660048036038101906101119190610d73565b6102b8565b6040516101239190610d22565b60405180910390f35b61014660048036038101906101419190610db3565b610304565b005b610162600480360381019061015d9190610cda565b61055b565b60405161017193929190610e02565b60405180910390f35b610194600480360381019061018f9190610cda565b610592565b6040516101a19190610d22565b60405180910390f35b6101c460048036038101906101bf9190610cda565b6105b2565b005b6101e060048036038101906101db9190610cda565b6107fa565b6040516101ed9190610e39565b60405180910390f35b610210600480360381019061020b9190610cda565b610812565b60405161021d9190610d22565b60405180910390f35b610240600480360381019061023b9190610cda565b610868565b005b61025c60048036038101906102579190610cda565b610baf565b60405161026b93929190610e02565b60405180910390f35b60008054906101000a900473ffffffffffffffffffffffffffffffffffffffff1681565b60026020528060005260406000206000915054906101000a900460ff1681565b600081600160008573ffffffffffffffffffffffffffffffffffffffff1673ffffffffffffffffffffffffffffffffffffffff1681526020019081526020016000205414905092915050565b6000801b8203610349576040517f08c379a000000000000000000000000000000000000000000000000000000000815260040161034090610ed7565b60405180910390fd5b6000801b810361038e576040517f08c379a000000000000000000000000000000000000000000000000000000000815260040161038590610f43565b60405180910390fd5b600260003373ffffffffffffffffffffffffffffffffffffffff1673ffffffffffffffffffffffffffffffffffffffff16815260200190815260200160002060009054906101000a900460ff161561041b576040517f08c379a000000000000000000000000000000000000000000000000000000000815260040161041290610fd5565b60405180910390fd5b604051806060016040528083815260200182815260200160001515815250600360003373ffffffffffffffffffffffffffffffffffffffff1673ffffffffffffffffffffffffffffffffffffffff168152602001908152602001600020600082015181600001556020820151816001015560408201518160020160006101000a81548160ff0219169083151502179055509050506001600260003373ffffffffffffffffffffffffffffffffffffffff1673ffffffffffffffffffffffffffffffffffffffff16815260200190815260200160002060006101000a81548160ff0219169083151502179055503373ffffffffffffffffffffffffffffffffffffffff167f9d2186044eec4ad967ceb58c90a9ada892d0980df00953e218ba36ca3322b447838360405161054f929190610ff5565b60405180910390a25050565b60036020528060005260406000206000915090508060000154908060010154908060020160009054906101000a900460ff16905083565b60046020528060005260406000206000915054906101000a900460ff1681565b60008054906101000a900473ffffffffffffffffffffffffffffffffffffffff1673ffffffffffffffffffffffffffffffffffffffff163373ffffffffffffffffffffffffffffffffffffffff1614610640576040517f08c379a000000000000000000000000000000000000000000000000000000000815260040161063790611090565b60405180910390fd5b600360008273ffffffffffffffffffffffffffffffffffffffff1673ffffffffffffffffffffffffffffffffffffffff16815260200190815260200160002060020160009054906101000a900460ff166106cf576040517f08c379a00000000000000000000000000000000000000000000000000000000081526004016106c6906110fc565b60405180910390fd5b600460008273ffffffffffffffffffffffffffffffffffffffff1673ffffffffffffffffffffffffffffffffffffffff16815260200190815260200160002060009054906101000a900460ff161561075c576040517f08c379a000000000000000000000000000000000000000000000000000000000815260040161075390611168565b60405180910390fd5b6001600460008373ffffffffffffffffffffffffffffffffffffffff1673ffffffffffffffffffffffffffffffffffffffff16815260200190815260200160002060006101000a81548160ff0219169083151502179055508073ffffffffffffffffffffffffffffffffffffffff167f5a8e20baa8796ab20fa077fa27ed310aacb99e0f45a4fe14a7bd5af8f3fd6eaf60405160405180910390a250565b60016020528060005260406000206000915090505481565b6000600460008373ffffffffffffffffffffffffffffffffffffffff1673ffffffffffffffffffffffffffffffffffffffff16815260200190815260200160002060009054906101000a900460ff169050919050565b60008054906101000a900473ffffffffffffffffffffffffffffffffffffffff1673ffffffffffffffffffffffffffffffffffffffff163373ffffffffffffffffffffffffffffffffffffffff16146108f6576040517f08c379a00000000000000000000000000000000000000000000000000000000081526004016108ed906111fa565b60405180910390fd5b6000801b600360008373ffffffffffffffffffffffffffffffffffffffff1673ffffffffffffffffffffffffffffffffffffffff168152602001908152602001600020600001540361097d576040517f08c379a000000000000000000000000000000000000000000000000000000000815260040161097490611266565b60405180910390fd5b600360008273ffffffffffffffffffffffffffffffffffffffff1673ffffffffffffffffffffffffffffffffffffffff16815260200190815260200160002060020160009054906101000a900460ff1615610a0d576040517f08c379a0000000000000000000000000000000000000000000000000000000008152600401610a04906112d2565b60405180910390fd5b6000600360008373ffffffffffffffffffffffffffffffffffffffff1673ffffffffffffffffffffffffffffffffffffffff16815260200190815260200160002060000154600360008473ffffffffffffffffffffffffffffffffffffffff1673ffffffffffffffffffffffffffffffffffffffff16815260200190815260200160002060010154604051602001610aa6929190611313565b6040516020818303038152906040528051906020012090506001600360008473ffffffffffffffffffffffffffffffffffffffff1673ffffffffffffffffffffffffffffffffffffffff16815260200190815260200160002060020160006101000a81548160ff02191690831515021790555080600160008473ffffffffffffffffffffffffffffffffffffffff1673ffffffffffffffffffffffffffffffffffffffff168152602001908152602001600020819055508173ffffffffffffffffffffffffffffffffffffffff167fa28e1567cb4f3c5639a3783ee93838daf1ad53f84ada9ef422b177a80f20a32a82604051610ba39190610e39565b60405180910390a25050565b600080600080600360008673ffffffffffffffffffffffffffffffffffffffff1673ffffffffffffffffffffffffffffffffffffffff16815260200190815260200160002060405180606001604052908160008201548152602001600182015481526020016002820160009054906101000a900460ff1615151515815250509050806000015181602001518260400151935093509350509193909250565b600073ffffffffffffffffffffffffffffffffffffffff82169050919050565b6000610c7882610c4d565b9050919050565b610c8881610c6d565b82525050565b6000602082019050610ca36000830184610c7f565b92915050565b600080fd5b610cb781610c6d565b8114610cc257600080fd5b50565b600081359050610cd481610cae565b92915050565b600060208284031215610cf057610cef610ca9565b5b6000610cfe84828501610cc5565b91505092915050565b60008115159050919050565b610d1c81610d07565b82525050565b6000602082019050610d376000830184610d13565b92915050565b6000819050919050565b610d5081610d3d565b8114610d5b57600080fd5b50565b600081359050610d6d81610d47565b92915050565b60008060408385031215610d8a57610d89610ca9565b5b6000610d9885828601610cc5565b9250506020610da985828601610d5e565b9150509250929050565b60008060408385031215610dca57610dc9610ca9565b5b6000610dd885828601610d5e565b9250506020610de985828601610d5e565b9150509250929050565b610dfc81610d3d565b82525050565b6000606082019050610e176000830186610df3565b610e246020830185610df3565b610e316040830184610d13565b949350505050565b6000602082019050610e4e6000830184610df3565b92915050565b600082825260208201905092915050565b7f50726f6a6563742064657461696c7320686173682063616e6e6f74206265206560008201527f6d70747900000000000000000000000000000000000000000000000000000000602082015250565b6000610ec1602483610e54565b9150610ecc82610e65565b604082019050919050565b60006020820190508181036000830152610ef081610eb4565b9050919050565b7f436572746966696361746520686173682063616e6e6f7420626520656d707479600082015250565b6000610f2d602083610e54565b9150610f3882610ef7565b602082019050919050565b60006020820190508181036000830152610f5c81610f20565b9050919050565b7f50726f6a65637420616c7265616479207375626d69747465642062792074686960008201527f73206f776e657200000000000000000000000000000000000000000000000000602082015250565b6000610fbf602783610e54565b9150610fca82610f63565b604082019050919050565b60006020820190508181036000830152610fee81610fb2565b9050919050565b600060408201905061100a6000830185610df3565b6110176020830184610df3565b9392505050565b7f4f6e6c792074686520617070726f7665722063616e207265766f6b652070726f60008201527f6a65637473000000000000000000000000000000000000000000000000000000602082015250565b600061107a602583610e54565b91506110858261101e565b604082019050919050565b600060208201905081810360008301526110a98161106d565b9050919050565b7f50726f6a656374206973206e6f7420617070726f766564000000000000000000600082015250565b60006110e6601783610e54565b91506110f1826110b0565b602082019050919050565b60006020820190508181036000830152611115816110d9565b9050919050565b7f50726f6a65637420697320616c7265616479207265766f6b6564000000000000600082015250565b6000611152601a83610e54565b915061115d8261111c565b602082019050919050565b6000602082019050818103600083015261118181611145565b9050919050565b7f4f6e6c792074686520617070726f7665722063616e20617070726f766520707260008201527f6f6a656374730000000000000000000000000000000000000000000000000000602082015250565b60006111e4602683610e54565b91506111ef82611188565b604082019050919050565b60006020820190508181036000830152611213816111d7565b9050919050565b7f50726f6a656374206e6f7420666f756e6420666f722074686973206f776e6572600082015250565b6000611250602083610e54565b915061125b8261121a565b602082019050919050565b6000602082019050818103600083015261127f81611243565b9050919050565b7f50726f6a65637420697320616c726561647920617070726f7665640000000000600082015250565b60006112bc601b83610e54565b91506112c782611286565b602082019050919050565b600060208201905081810360008301526112eb816112af565b9050919050565b6000819050919050565b61130d61130882610d3d565b6112f2565b82525050565b600061131f82856112fc565b60208201915061132f82846112fc565b602082019150819050939250505056fea2646970667358221220d763d069fc152064be0c6ee6a4afab64ef93110cb9ab9346e3c4011ac794f04c64736f6c63430008180033",
  "linkReferences": {},
  "deployedLinkReferences": {}
}